:020000040800F2
:1000000078040020D9000008250E0008690D0008BA
:1000100000000000000000000000000000000000E0
:10002000000000000000000000000000F10F0008C8
:100030000000000000000000270E0008F30F000879
:10004000EB000008EB000008EB000008EB000008E4
:10005000EB000008EB000008EB000008EB000008D4
:10006000EB000008EB000008EB000008EB000008C4
:10007000EB000008EB000008EB000008EB000008B4
:10008000EB000008EB000008EB000008EB000008A4
:10009000EB000008EB000008EB000008EB00000894
:1000A000EB000008EB000008EB000008EB00000884
:1000B000EB000008EB000008EB000008EB00000874
:1000C0000448854600F090F800480047E110000819
:1000D000C046C046780400200448804704480047D2
:1000E000FEE7FEE7FEE7FEE7FEE7FEE74B1000084F
:1000F000C100000830B50B46014600202022012433
:1001000009E00D46D5409D4205D31D469540491B4B
:100110002546954040191546521E002DF1DC30BD94
:10012000F0B51FB40646002082B005464024019178
:1001300000901BE0019922460F46304600F020F85F
:10014000049A059B801A994110D3104619462246FD
:1001500000F039F8361A8F4101972246012000211C
:10016000009F00F030F838184D4100902046641E82
:100170000028DFDC019B00982946324607B0F0BD1D
:1001800010B5202A04DB0846203AD040002110BDDB
:100190000B46D340D0402024A21A91400843194670
:1001A00010BDD2B201E00270401C491EFBD2704764
:1001B0000022F6E710B513460A4604461946FFF733
:1001C000F0FF204610BD10B5202A04DB0146203A7E
:1001D0009140002010BD914020239C1A0346E3402B
:1001E0001943904010BD0000064C0125064E05E065
:1001F000E36807CC2B430C3C98471034B442F7D348
:10020000FFF762FF84110008A4110008FCB5002369
:100210000124A6E027462A469F403A4073D04D6805
:10022000012D05D0022D03D0112D01D0122D16D194
:1002300085680326AC465D00AE46AE406546B543D4
:10024000AC46CE687546AE4065462E43866046682D
:100250000D79BE43ED06ED0F9D4035434560C66800
:100260005F000325BD40AE46AE4335468E68BE40B6
:100270002E43C6604E68022E01D0122E14D1DE0825
:10028000B60036180196366A5D07B446EE0E0F25A5
:10029000B54000966646AE43B4460D69009EB54033
:1002A00066462E43019D2E6206687546AE430D7963
:1002B000AD07AD0FBD40354305604D68ED004FD52E
:1002C0002B4DAE692643AE61AD699E08ED07ED0F7B
:1002D0000095284DB6007519AC46AD689E07360FDF
:1002E0000F27B740BD430927FF06B84201D10027B9
:1002F00015E0214FB84201D1012710E01F4FB8424D
:1003000002D102270BE02BE01D4FB84201D1032799
:1003100005E01C4FB84201D1042700E00527B74093
:100320002F436546AF60184E35684F689543FF030D
:1003300000D51543356075684F689543BF0300D5F8
:1003400015437560B5684F689543FF0200D51543A6
:10035000B560F5684F689543BF0200D51543F56059
:100360005B1C0A681546DA4000D053E7FCBD00006C
:10037000001002400000014000040048000800484E
:10038000000C00480010004800040140002A01D081
:100390008161704781627047014880687047000042
:1003A0000000002002488168027889188160704747
:1003B0000000002010B506480168102211430160BA
:1003C000002000F007F800F027F8002010BD000022
:1003D0000020024070B504460D4D7D202978C000F4
:1003E000FFF788FE01460B480068FFF783FE00F028
:1003F000A3FC002809D1042C07D200222146401E6C
:1004000000F01EF800206C6070BD012070BD00007F
:10041000000000200C00002008B508488169012276
:1004200011438161816911400091C26901040A434D
:10043000C261C0690840009008BD00000010024081
:1004400010B500F01BFE10BDF8B50F4606005FD0DA
:100450003D4D2868C007C00FB84209D2286840083F
:100460004000384328602868C007C00FB8424FD109
:100470003068364C81070CD5400704D560680721E9
:100480000902084360606068F0218843B16808434E
:1004900060603078C0072CD07068012810D0022826
:1004A00011D0032812D021688907002930DA616849
:1004B0008908890001436160FFF76EFF009011E039
:1004C00021688903F1E721688901EEE7616BC903BF
:1004D000EBE7FFF761FF0099411A1D48814201D9FE
:1004E0000320F8BD60680C210840716889008842CB
:1004F000EFD12868C007C00FB8420BD92868400860
:100500004000384328602868C007C00FB84201D0B7
:100510000120F8BD3078400706D560680721090240
:100520008843F1680843606000F018F86168094A80
:100530000906090F515CC840074908600020FFF711
:1005400049FF0020F8BD00000020024000100240DA
:1005500088130000741100080C00002030B519A3A6
:100560000FCB89B06C460FC41AA30FCB0FC41D4A22
:1005700051680C200B4603401B48042B05D01B4D33
:10058000082B04D00C2B00D1284609B030BD8B02BB
:100590001B0F6C46E45CD26A04AB1207120FC9034E
:1005A0009A5C890F022901D0032901D0002301E0C0
:1005B000002328460021FFF7B3FD214600F046FD49
:1005C000E3E7000002030405060708090A0B0C0D07
:1005D0000E0F10100102030405060708090A0B0C90
:1005E0000D0E0F100010024000127A00006CDC02A9
:1005F000FEB5040070D02078F94EFA4DC00748D0FF
:1006000068680007800F01281FD068680007800F06
:10061000022804D16868C003800F022815D06168E1
:10062000012919D001208004002901D0052917D003
:100630002968B143296029688143296060680028DE
:100640001BD0FFF7A9FE074613E02868800320D5DA
:1006500060680028CED01CE0286830432860EDE7B1
:10066000296801432960F7E7FFF796FEC01B64285D
:1006700070D828688003F7D50BE0FFF78DFE07469A
:1006800004E0FFF789FEC01B6428F1D828688003C6
:10069000F7D4207880073FD568680007800F14D012
:1006A00068680007800F022804D16868C003800FC3
:1006B00001280AD0E068002828681ED001210843DC
:1006C0002860FFF769FE07460CE0286880070CD514
:1006D000E068012800D108E080E1FFF75DFEC01B63
:1006E0000228C5D828688007F7D52868F8218843EC
:1006F0002169C900084328600EE0400840002860D6
:10070000FFF74AFE074604E0FFF746FEC01B02283B
:10071000AED828688007F7D42078000723D5E06991
:100720000028686A0FD0012108436862FFF734FE91
:10073000074604E0FFF730FEC01B022898D8686A1D
:100740008007F7D50FE0400840006862FFF724FEFD
:10075000074605E0C3E0FFF71FFEC01B022887D84D
:10076000686A8007F7D4207804274007002861DAF8
:1007700000200190E869C00008D4E969B806014387
:10078000E961E96901400120009101909648016802
:10079000C90511D40168821511430160FFF7FCFD02
:1007A000009005E0FFF7F8FD0099401A642898D8FA
:1007B0008D480068C005F5D5A06801280AD000283A
:1007C00001D0052811D0286A400840002862286A14
:1007D000B84302E0286A012108432862A068002883
:1007E00012D0FFF7D9FD00900AE0286A384328624A
:1007F000F0E7FFF7D1FD0099411A7C4881426ED89D
:10080000286A8007F5D50DE0FFF7C6FD009006E0E9
:10081000FFF7C2FD0099411A744881425FD8286AE7
:100820008007F5D40198002804D0E9690120000769
:100830008143E9612078C00635D5606901280CD074
:10084000401D686B24D038436863686B40084000E3
:100850006863FFF7A1FD074622E0686B38436863D1
:10086000686B012108436863FFF796FD074604E0C3
:10087000FFF792FDC01B022831D8686B8007F7D5BF
:10088000686BF8218843A169C900084368630AE0DE
:10089000B8436863F4E7FFF77FFDC01B02281ED84A
:1008A000686B8007F7D42078800637D56868000722
:1008B000800F032814D068680007800F022804D135
:1008C0006868C003800F03280AD0206A0028686B7C
:1008D00016D030436863FFF75FFD06460CE062E028
:1008E000686BC0031AD5206A012877D116E0FFF79C
:1008F00053FD801B022856D8686BC003F7D50DE066
:10090000B0436863FFF748FD064604E0FFF744FD87
:10091000801B022847D8686BC003F7D4606A0028A0
:1009200066D069680907890F022942D00126360678
:100930000228286805D0B0432860FFF72DFD044643
:1009400033E0B0432860FFF727FD074604E0FFF7D8
:1009500023FDC01B022826D828688001F7D4E86A46
:10096000216B000900010843E862A16AE06A0843BC
:1009700069687B22D203914308436860286830434A
:100980002860FFF709FD044604E0FFF705FD001BA2
:10099000022808D828688001F7D529E0FFF7FCFC79
:1009A000001B022801D90320FEBD28688001F5D470
:1009B0001EE00128F8D06868E96A0322D203A36A1E
:1009C00002409A420AD10907226B090F914205D1D0
:1009D0000F2189040840E16A884209D00120FEBD48
:1009E0000000010000100240007000408813000069
:1009F0000020F4E7F8B504000CD0606A0025002858
:100A00000AD02561656126464036A562707F0028C0
:100A100008D00BE00120F8BD6168C81FFD38F2D096
:100A2000E561F0E73577204600F05CF80222727746
:100A3000206801684023994301600723E1681B0295
:100A4000994201D9002001E0012000030F273F0255
:100A5000B94202D0994200D0A562FF2361680533F4
:100A600019402127A368BF023B4019432369134063
:100A7000227D1943D207D20F11430123A2695B02E1
:100A80001A401143E26938231A401143226A802335
:100A90001A401143A26A9B011A4011432268116057
:100AA000A1690422090C1140626A10231A40114303
:100AB000626B08231A4011430F23E2681B021A409D
:100AC0001143012212031040014320684160206855
:100AD000C16952109143C1612566012070770020E1
:100AE000F8BD000010B586B0044614216846FFF733
:100AF0005FFB1149206888421BD11048826981142C
:100B00000A43826182690A400592426989010A4367
:100B10004261406908400590382000900220002181
:100B20000190032002910491039069460448FFF765
:100B30006DFB06B010BD0000003001400010024007
:100B400000040048FFB5044683B001200190002056
:100B5000254640350090287F0C9F1E4601280FD067
:100B600001202877FFF718FC0290687F6168012850
:100B70000DD0CA1FFD3A08D1A168002905D102E0B5
:100B8000022007B0F0BD042801D00220D1E0049873
:100B9000002820D0059800281DD0002E1BD0687F8B
:100BA000042801D00520687700202066059921647B
:100BB000EE80AE800499A163E687A687E064206595
:100BC00007210120E268090200038A422268536873
:100BD00003D9834302E00120ABE003435360206864
:100BE0000268520603D4026840231A430260E06898
:100BF0008842606844D9002801D0012E39D1A06B09
:100C000021680088C860A06B801CA063E08F401E34
:100C1000E0872EE020688168890710D5E18F0029E0
:100C20000DD0019901290AD1A16B0988C160A06B7F
:100C3000801CA063E08F401EE087002001902068A8
:100C40008168C9070DD0E98800290AD0C068216CE5
:100C50000880206C801C2064E888401EE880012009
:100C60000190FFF799FB0299401AB84201D3781C12
:100C70005ED1E08F0028CDD1E8880028CAD146E0B7
:100C8000002801D0012E3CD1A06B216800780873A8
:100C9000A06B401CA063E08F401EE08731E020681D
:100CA0008168890710D5E18F00290DD001990129AC
:100CB0000AD1A16B09780173A06B401CA063E08F7F
:100CC000401EE0870020019020688168C9070DD090
:100CD000E98800290AD0007B216C0870206C401C38
:100CE0002064E888401EE88001200190FFF754FB53
:100CF0000299401AB84202D3781C02D018E0002FA3
:100D000016D0E08F0028CAD1E8880028C7D139461C
:100D10002046029A00F088F8002803D001200090B5
:100D2000202020660120687700202877009828E797
:100D300003200090F6E70000094910B5401E8842E4
:100D400001D9012010BD074C60610321081F00F08C
:100D500095F90020A06107202061002010BD00004F
:100D6000FFFFFF0000E000E0FEE7000030B587B0C5
:100D700014216846FFF71CFA15484269012149040D
:100D80000A43426142690A400592426989000A4366
:100D90004261406909250840059010200090032019
:100DA0000124ED060390019469462846FFF72EFAC8
:100DB0006815009000200390019469460548FFF7EC
:100DC00025FA012210212846FFF7E0FA07B030BDCE
:100DD000001002400008004810B511480F4901609A
:100DE000FF2105314160002107228160120201616B
:100DF000C260012241615202826101623822416275
:100E0000C26181620722C262016308214163FFF768
:100E1000F1FD002801D072B6FEE710BD00300140A0
:100E200010000020FEE77047F8B50F460B46154648
:100E30000092032104460022C90200F01BF820267C
:100E4000002812D13B46002280212046009500F068
:100E500073F8002809D103213B46002249022046AD
:100E6000009500F007F8002803D0206E304320667C
:100E70000320F8BDFFB583B017460E4604460C9D0F
:100E8000FFF78AFA411B0698451AFFF785FA019089
:100E90002848232100684843000D684342E00321AD
:100EA00049028E4202D1002F00D1007B0698401CDF
:100EB00039D0FFF771FA0199401AA84205D2002DE6
:100EC00003D0009800282BD02BE020684168E02256
:100ED000914341606068C11FFD390CD10121A068B8
:100EE000C903884202D04911884204D120680168B0
:100EF0004022914301600120A16A4003814207D151
:100F000021680A6882430A6021680A6802430A600D
:100F100001204034607700202077032007B0F0BD27
:100F20000025401E0090206881683140B942B6D14A
:100F30000020F3E70C000020FFB581B01E460446F8
:100F40000A9DFFF729FA401B351AFFF725FA0746D5
:100F5000264800684001000D684339E0701C38D015
:100F6000FFF71AFAC01BA84205D2002D03D0009843
:100F700000282BD02BE020684168E022914341609B
:100F80006068C11FFD390CD10121A068C9038842E6
:100F900002D04911884204D120680168402291435F
:100FA00001600120A16A4003814207D121680A68DB
:100FB00082430A6021680A6802430A6001204034C3
:100FC000607700202077032005B0F0BD0025401E8B
:100FD0000090206881680298884305D0002103981A
:100FE0008142BBD10020EFE70121F8E70C0000208F
:100FF000704710B5FFF7D6F910BD10B592B0342187
:101000006846FFF7D5F800240F94022000900D9455
:1010100001200E94039010200994049010946846C7
:10102000FFF7E6FA002801D072B6FEE707200D9020
:101030000E940F94002110940DA8FFF705FA0028D4
:1010400001D072B6FEE712B010BD7047F8B5040CBF
:101050008BB2264682B25E430D0C1046370C5843C5
:10106000360480190021794116466E43370C360448
:101070008019794126466E438919F8BD8307FF22FE
:10108000DB0E9A408907090E9940002808DB830887
:1010900009489B001B181868904308431860704764
:1010A0000007000F0838830804489B001B18D86904
:1010B00090430843D861704700E400E000ED00E091
:1010C00002E008C8121F08C1002AFAD17047704711
:1010D000002001E001C1121F002AFBD1704700006F
:1010E00086B0FFF767F9FFF788FFFFF73FFEFFF7CE
:1010F00073FE0924E406002210212046FFF746F97A
:10110000002003900490401E0090052301AA03A92B
:101110001548FFF717FD012210212046FFF736F989
:101120006846C079124C02046846007A0006024301
:101130006846817943790802184302430B4801212C
:101140004902824205D101222046FFF71FF9002201
:1011500004E000222046FFF719F901224021204631
:10116000FFF714F9FEE70000100000203001CADE8E
:101170000008004800000000000000000102030415
:1011800006070809A4110008000000201000000054
:10119000C0100008B411000810000020680400000E
:1011A000D010000801000000040000000000000052
:0411B00000127A00AF
:04000005080000C12E
:00000001FF
